{"abi":[{"type":"constructor","inputs":[{"name":"_depositToken","type":"address","internalType":"address"},{"name":"_profitToken","type":"address","internalType":"address"}],"stateMutability":"nonpayable"},{"type":"function","name":"MIN_DEPOSIT","inputs":[],"outputs":[{"name":"","type":"uint256","internalType":"uint256"}],"stateMutability":"view"},{"type":"function","name":"claimProfit","inputs":[],"outputs":[],"stateMutability":"nonpayable"},{"type":"function","name":"createGoal","inputs":[{"name":"_type","type":"uint8","internalType":"enum HalalSavingsVaultV2.GoalType"},{"name":"_targetAmount","type":"uint256","internalType":"uint256"},{"name":"_targetDate","type":"uint256","internalType":"uint256"},{"name":"_monthlyCommitment","type":"uint256","internalType":"uint256"},{"name":"_customName","type":"string","internalType":"string"}],"outputs":[{"name":"goalId","type":"uint256","internalType":"uint256"}],"stateMutability":"nonpayable"},{"type":"function","name":"deposit","inputs":[{"name":"goalId","type":"uint256","internalType":"uint256"},{"name":"amount","type":"uint256","internalType":"uint256"}],"outputs":[],"stateMutability":"nonpayable"},{"type":"function","name":"depositToken","inputs":[],"outputs":[{"name":"","type":"address","internalType":"contract IERC20"}],"stateMutability":"view"},{"type":"function","name":"earned","inputs":[{"name":"user","type":"address","internalType":"address"}],"outputs":[{"name":"","type":"uint256","internalType":"uint256"}],"stateMutability":"view"},{"type":"function","name":"emergencyWithdrawToken","inputs":[{"name":"token","type":"address","internalType":"address"},{"name":"amount","type":"uint256","internalType":"uint256"}],"outputs":[],"stateMutability":"nonpayable"},{"type":"function","name":"fundProfitPool","inputs":[{"name":"amount","type":"uint256","internalType":"uint256"}],"outputs":[],"stateMutability":"nonpayable"},{"type":"function","name":"getActiveGoals","inputs":[{"name":"user","type":"address","internalType":"address"}],"outputs":[{"name":"","type":"tuple[]","internalType":"struct HalalSavingsVaultV2.SavingGoal[]","components":[{"name":"goalId","type":"uint256","internalType":"uint256"},{"name":"goalType","type":"uint8","internalType":"enum HalalSavingsVaultV2.GoalType"},{"name":"targetAmount","type":"uint256","internalType":"uint256"},{"name":"targetDate","type":"uint256","internalType":"uint256"},{"name":"monthlyCommitment","type":"uint256","internalType":"uint256"},{"name":"totalSaved","type":"uint256","internalType":"uint256"},{"name":"startDate","type":"uint256","internalType":"uint256"},{"name":"isActive","type":"bool","internalType":"bool"},{"name":"isCompleted","type":"bool","internalType":"bool"},{"name":"customName","type":"string","internalType":"string"}]}],"stateMutability":"view"},{"type":"function","name":"getCompletedGoals","inputs":[{"name":"user","type":"address","internalType":"address"}],"outputs":[{"name":"","type":"tuple[]","internalType":"struct HalalSavingsVaultV2.SavingGoal[]","components":[{"name":"goalId","type":"uint256","internalType":"uint256"},{"name":"goalType","type":"uint8","internalType":"enum HalalSavingsVaultV2.GoalType"},{"name":"targetAmount","type":"uint256","internalType":"uint256"},{"name":"targetDate","type":"uint256","internalType":"uint256"},{"name":"monthlyCommitment","type":"uint256","internalType":"uint256"},{"name":"totalSaved","type":"uint256","internalType":"uint256"},{"name":"startDate","type":"uint256","internalType":"uint256"},{"name":"isActive","type":"bool","internalType":"bool"},{"name":"isCompleted","type":"bool","internalType":"bool"},{"name":"customName","type":"string","internalType":"string"}]}],"stateMutability":"view"},{"type":"function","name":"getGoal","inputs":[{"name":"user","type":"address","internalType":"address"},{"name":"goalId","type":"uint256","internalType":"uint256"}],"outputs":[{"name":"","type":"tuple","internalType":"struct HalalSavingsVaultV2.SavingGoal","components":[{"name":"goalId","type":"uint256","internalType":"uint256"},{"name":"goalType","type":"uint8","internalType":"enum HalalSavingsVaultV2.GoalType"},{"name":"targetAmount","type":"uint256","internalType":"uint256"},{"name":"targetDate","type":"uint256","internalType":"uint256"},{"name":"monthlyCommitment","type":"uint256","internalType":"uint256"},{"name":"totalSaved","type":"uint256","internalType":"uint256"},{"name":"startDate","type":"uint256","internalType":"uint256"},{"name":"isActive","type":"bool","internalType":"bool"},{"name":"isCompleted","type":"bool","internalType":"bool"},{"name":"customName","type":"string","internalType":"string"}]}],"stateMutability":"view"},{"type":"function","name":"getProfitShareRate","inputs":[],"outputs":[{"name":"","type":"uint256","internalType":"uint256"}],"stateMutability":"view"},{"type":"function","name":"getTVL","inputs":[],"outputs":[{"name":"","type":"uint256","internalType":"uint256"}],"stateMutability":"view"},{"type":"function","name":"getTotalUsers","inputs":[],"outputs":[{"name":"","type":"uint256","internalType":"uint256"}],"stateMutability":"view"},{"type":"function","name":"getUserGoals","inputs":[{"name":"user","type":"address","internalType":"address"}],"outputs":[{"name":"","type":"tuple[]","internalType":"struct HalalSavingsVaultV2.SavingGoal[]","components":[{"name":"goalId","type":"uint256","internalType":"uint256"},{"name":"goalType","type":"uint8","internalType":"enum HalalSavingsVaultV2.GoalType"},{"name":"targetAmount","type":"uint256","internalType":"uint256"},{"name":"targetDate","type":"uint256","internalType":"uint256"},{"name":"monthlyCommitment","type":"uint256","internalType":"uint256"},{"name":"totalSaved","type":"uint256","internalType":"uint256"},{"name":"startDate","type":"uint256","internalType":"uint256"},{"name":"isActive","type":"bool","internalType":"bool"},{"name":"isCompleted","type":"bool","internalType":"bool"},{"name":"customName","type":"string","internalType":"string"}]}],"stateMutability":"view"},{"type":"function","name":"lastUpdateTime","inputs":[],"outputs":[{"name":"","type":"uint256","internalType":"uint256"}],"stateMutability":"view"},{"type":"function","name":"nextGoalId","inputs":[{"name":"","type":"address","internalType":"address"}],"outputs":[{"name":"","type":"uint256","internalType":"uint256"}],"stateMutability":"view"},{"type":"function","name":"owner","inputs":[],"outputs":[{"name":"","type":"address","internalType":"address"}],"stateMutability":"view"},{"type":"function","name":"pauseGoal","inputs":[{"name":"goalId","type":"uint256","internalType":"uint256"}],"outputs":[],"stateMutability":"nonpayable"},{"type":"function","name":"profitPerTokenStored","inputs":[],"outputs":[{"name":"","type":"uint256","internalType":"uint256"}],"stateMutability":"view"},{"type":"function","name":"profitPool","inputs":[],"outputs":[{"name":"","type":"uint256","internalType":"uint256"}],"stateMutability":"view"},{"type":"function","name":"profitShareRate","inputs":[],"outputs":[{"name":"","type":"uint256","internalType":"uint256"}],"stateMutability":"view"},{"type":"function","name":"profitToken","inputs":[],"outputs":[{"name":"","type":"address","internalType":"contract IERC20"}],"stateMutability":"view"},{"type":"function","name":"resumeGoal","inputs":[{"name":"goalId","type":"uint256","internalType":"uint256"}],"outputs":[],"stateMutability":"nonpayable"},{"type":"function","name":"setProfitShareRate","inputs":[{"name":"newRate","type":"uint256","internalType":"uint256"}],"outputs":[],"stateMutability":"nonpayable"},{"type":"function","name":"totalDeposited","inputs":[],"outputs":[{"name":"","type":"uint256","internalType":"uint256"}],"stateMutability":"view"},{"type":"function","name":"totalUsers","inputs":[],"outputs":[{"name":"","type":"uint256","internalType":"uint256"}],"stateMutability":"view"},{"type":"function","name":"transferOwnership","inputs":[{"name":"newOwner","type":"address","internalType":"address"}],"outputs":[],"stateMutability":"nonpayable"},{"type":"function","name":"userGoals","inputs":[{"name":"","type":"address","internalType":"address"},{"name":"","type":"uint256","internalType":"uint256"}],"outputs":[{"name":"goalId","type":"uint256","internalType":"uint256"},{"name":"goalType","type":"uint8","internalType":"enum HalalSavingsVaultV2.GoalType"},{"name":"targetAmount","type":"uint256","internalType":"uint256"},{"name":"targetDate","type":"uint256","internalType":"uint256"},{"name":"monthlyCommitment","type":"uint256","internalType":"uint256"},{"name":"totalSaved","type":"uint256","internalType":"uint256"},{"name":"startDate","type":"uint256","internalType":"uint256"},{"name":"isActive","type":"bool","internalType":"bool"},{"name":"isCompleted","type":"bool","internalType":"bool"},{"name":"customName","type":"string","internalType":"string"}],"stateMutability":"view"},{"type":"function","name":"userProfitBalance","inputs":[{"name":"","type":"address","internalType":"address"}],"outputs":[{"name":"","type":"uint256","internalType":"uint256"}],"stateMutability":"view"},{"type":"function","name":"userProfitPerTokenPaid","inputs":[{"name":"","type":"address","internalType":"address"}],"outputs":[{"name":"","type":"uint256","internalType":"uint256"}],"stateMutability":"view"},{"type":"function","name":"userStats","inputs":[{"name":"","type":"address","internalType":"address"}],"outputs":[{"name":"totalDeposited","type":"uint256","internalType":"uint256"},{"name":"totalWithdrawn","type":"uint256","internalType":"uint256"},{"name":"streakMonths","type":"uint256","internalType":"uint256"},{"name":"lastDepositTime","type":"uint256","internalType":"uint256"},{"name":"profitShareClaimed","type":"uint256","internalType":"uint256"},{"name":"goalsCreated","type":"uint256","internalType":"uint256"},{"name":"goalsCompleted","type":"uint256","internalType":"uint256"}],"stateMutability":"view"},{"type":"function","name":"withdraw","inputs":[{"name":"goalId","type":"uint256","internalType":"uint256"},{"name":"amount","type":"uint256","internalType":"uint256"}],"outputs":[],"stateMutability":"nonpayable"},{"type":"event","name":"Deposited","inputs":[{"name":"user","type":"address","indexed":true,"internalType":"address"},{"name":"goalId","type":"uint256","indexed":true,"internalType":"uint256"},{"name":"amount","type":"uint256","indexed":false,"internalType":"uint256"}],"anonymous":false},{"type":"event","name":"GoalCompleted","inputs":[{"name":"user","type":"address","indexed":true,"internalType":"address"},{"name":"goalId","type":"uint256","indexed":true,"internalType":"uint256"},{"name":"goalType","type":"uint8","indexed":false,"internalType":"enum HalalSavingsVaultV2.GoalType"},{"name":"totalSaved","type":"uint256","indexed":false,"internalType":"uint256"}],"anonymous":false},{"type":"event","name":"GoalCreated","inputs":[{"name":"user","type":"address","indexed":true,"internalType":"address"},{"name":"goalId","type":"uint256","indexed":true,"internalType":"uint256"},{"name":"goalType","type":"uint8","indexed":false,"internalType":"enum HalalSavingsVaultV2.GoalType"},{"name":"targetAmount","type":"uint256","indexed":false,"internalType":"uint256"},{"name":"name","type":"string","indexed":false,"internalType":"string"}],"anonymous":false},{"type":"event","name":"GoalPaused","inputs":[{"name":"user","type":"address","indexed":true,"internalType":"address"},{"name":"goalId","type":"uint256","indexed":true,"internalType":"uint256"}],"anonymous":false},{"type":"event","name":"GoalResumed","inputs":[{"name":"user","type":"address","indexed":true,"internalType":"address"},{"name":"goalId","type":"uint256","indexed":true,"internalType":"uint256"}],"anonymous":false},{"type":"event","name":"ProfitClaimed","inputs":[{"name":"user","type":"address","indexed":true,"internalType":"address"},{"name":"amount","type":"uint256","indexed":false,"internalType":"uint256"}],"anonymous":false},{"type":"event","name":"ProfitPoolFunded","inputs":[{"name":"amount","type":"uint256","indexed":false,"internalType":"uint256"}],"anonymous":false},{"type":"event","name":"ProfitShareRateUpdated","inputs":[{"name":"oldRate","type":"uint256","indexed":false,"internalType":"uint256"},{"name":"newRate","type":"uint256","indexed":false,"internalType":"uint256"}],"anonymous":false},{"type":"event","name":"Withdrawn","inputs":[{"name":"user","type":"address","indexed":true,"internalType":"address"},{"name":"goalId","type":"uint256","indexed":true,"internalType":"uint256"},{"name":"amount","type":"uint256","indexed":false,"internalType":"uint256"},{"name":"remainingBalance","type":"uint256","indexed":false,"internalType":"uint256"}],"anonymous":false},{"type":"error","name":"SafeERC20FailedOperation","inputs":[{"name":"token","type":"address","internalType":"address"}]}],"bytecode":{"object":"0x60c060405265048c273950006009553480156200001a575f80fd5b5060405162004c6a38038062004c6a833981810160405281019062000040919062000207565b5f73ffffffffffffffffffffffffffffffffffffffff168273ffffffffffffffffffffffffffffffffffffffff1614158015620000a957505f73ffffffffffffffffffffffffffffffffffffffff168173ffffffffffffffffffffffffffffffffffffffff1614155b620000eb576040517f08c379a0000000000000000000000000000000000000000000000000000000008152600401620000e290620002aa565b60405180910390fd5b8173ffffffffffffffffffffffffffffffffffffffff1660808173ffffffffffffffffffffffffffffffffffffffff16815250508073ffffffffffffffffffffffffffffffffffffffff1660a08173ffffffffffffffffffffffffffffffffffffffff168152505033600a5f6101000a81548173ffffffffffffffffffffffffffffffffffffffff021916908373ffffffffffffffffffffffffffffffffffffffff160217905550426006819055505050620002ca565b5f80fd5b5f73ffffffffffffffffffffffffffffffffffffffff82169050919050565b5f620001d182620001a6565b9050919050565b620001e381620001c5565b8114620001ee575f80fd5b50565b5f815190506200020181620001d8565b92915050565b5f806040838503121562000220576200021f620001a2565b5b5f6200022f85828601620001f1565b92505060206200024285828601620001f1565b9150509250929050565b5f82825260208201905092915050565b7f7a65726f206164647265737300000000000000000000000000000000000000005f82015250565b5f62000292600c836200024c565b91506200029f826200025c565b602082019050919050565b5f6020820190508181035f830152620002c38162000284565b9050919050565b60805160a051614954620003165f395f818161132401528181611a0f015281816128d7015281816129790152612c4201525f8181611953015281816124ad01526126c101526149545ff3fe608060405234801561000f575f80fd5b50600436106101f8575f3560e01c80638a65d87411610118578063c89039c5116100ab578063e4adec261161007a578063e4adec261461060d578063e81cb1a41461062b578063f011a7af14610647578063f2fde38b14610651578063ff50abdc1461066d576101f8565b8063c89039c514610597578063c8f33c91146105b5578063e1e158a5146105d3578063e2bbb158146105f1576101f8565b8063a4c3b091116100e7578063a4c3b091146104f4578063b6b3eedf14610510578063bcfb3c0314610549578063bff1f9e114610579576101f8565b80638a65d874146104645780638da5cb5b1461049a57806397b3fcaa146104b85780639be572f6146104d6576101f8565b8063441a3e70116101905780634c9d08141161015f5780634c9d0814146103ca57806357cc1f0b146103fa57806358104375146104165780636b7a2a9514610446576101f8565b8063441a3e70146103425780634558e5561461035e57806346062ef71461038e57806349343624146103ac576101f8565b806309b653e5116101cc57806309b653e5146102aa57806313e5415e146102c65780632e71319c146102e257806335742c6314610312576101f8565b80628cc262146101fc57806301f412441461022c578063029a0a431461025c57806302ca5dbb1461028c575b5f80fd5b610216600480360381019061021191906133be565b61068b565b6040516102239190613401565b60405180910390f35b610246600480360381019061024191906133be565b610806565b60405161025391906136d2565b60405180910390f35b610276600480360381019061027191906133be565b610bd4565b60405161028391906136d2565b60405180910390f35b610294611088565b6040516102a19190613401565b60405180910390f35b6102c460048036038101906102bf919061371c565b611091565b005b6102e060048036038101906102db919061371c565b61128d565b005b6102fc60048036038101906102f791906133be565b6113bb565b6040516103099190613401565b60405180910390f35b61032c600480360381019061032791906133be565b6113d0565b60405161033991906136d2565b60405180910390f35b61035c60048036038101906103579190613747565b6115a3565b005b610378600480360381019061037391906133be565b6119f2565b6040516103859190613401565b60405180910390f35b610396611a07565b6040516103a39190613401565b60405180910390f35b6103b4611a0d565b6040516103c191906137e0565b60405180910390f35b6103e460048036038101906103df9190613948565b611a31565b6040516103f19190613401565b60405180910390f35b610414600480360381019061040f919061371c565b611de9565b005b610430600480360381019061042b91906133be565b611fe3565b60405161043d9190613401565b60405180910390f35b61044e611ff8565b60405161045b9190613401565b60405180910390f35b61047e600480360381019061047991906133be565b611ffe565b60405161049197969594939291906139db565b60405180910390f35b6104a261203c565b6040516104af9190613a57565b60405180910390f35b6104c0612061565b6040516104cd9190613401565b60405180910390f35b6104de61206a565b6040516104eb9190613401565b60405180910390f35b61050e60048036038101906105099190613a70565b612073565b005b61052a60048036038101906105259190613a70565b612152565b6040516105409a99989796959493929190613b14565b60405180910390f35b610563600480360381019061055e9190613a70565b612266565b6040516105709190613c8c565b60405180910390f35b6105816124a5565b60405161058e9190613401565b60405180910390f35b61059f6124ab565b6040516105ac91906137e0565b60405180910390f35b6105bd6124cf565b6040516105ca9190613401565b60405180910390f35b6105db6124d5565b6040516105e89190613401565b60405180910390f35b61060b60048036038101906106069190613747565b6124e1565b005b610615612a30565b6040516106229190613401565b60405180910390f35b6106456004803603810190610640919061371c565b612a36565b005b61064f612b17565b005b61066b600480360381019061066691906133be565b612cd7565b005b610675612e17565b6040516106829190613401565b60405180910390f35b5f8061069683612e1d565b90505f81036106e55760085f8473ffffffffffffffffffffffffffffffffffffffff1673ffffffffffffffffffffffffffffffffffffffff1681526020019081526020015f2054915050610801565b5f60055490505f6003541115610748575f600654426107049190613cd9565b90505f600954826107159190613d0c565b9050600354670de0b6b3a76400008261072e9190613d0c565b6107389190613d7a565b836107439190613daa565b925050505b5f670de0b6b3a764000060075f8773ffffffffffffffffffffffffffffffffffffffff1673ffffffffffffffffffffffffffffffffffffffff1681526020019081526020015f20548361079b9190613cd9565b846107a69190613d0c565b6107b09190613d7a565b90508060085f8773ffffffffffffffffffffffffffffffffffffffff1673ffffffffffffffffffffffffffffffffffffffff1681526020019081526020015f20546107fb9190613daa565b93505050505b919050565b60605f805b5f808573ffffffffffffffffffffffffffffffffffffffff1673ffffffffffffffffffffffffffffffffffffffff1681526020019081526020015f20805490508110156108de575f808573ffffffffffffffffffffffffffffffffffffffff1673ffffffffffffffffffffffffffffffffffffffff1681526020019081526020015f2081815481106108a05761089f613ddd565b5b905f5260205f20906009020160070160019054906101000a900460ff16156108d15781806108cd90613e0a565b9250505b808060010191505061080b565b505f8167ffffffffffffffff8111156108fa576108f9613824565b5b60405190808252806020026020018201604052801561093357816020015b6109206132f3565b8152602001906001900390816109185790505b5090505f805b5f808773ffffffffffffffffffffffffffffffffffffffff1673ffffffffffffffffffffffffffffffffffffffff1681526020019081526020015f2080549050811015610bc8575f808773ffffffffffffffffffffffffffffffffffffffff1673ffffffffffffffffffffffffffffffffffffffff1681526020019081526020015f2081815481106109ce576109cd613ddd565b5b905f5260205f20906009020160070160019054906101000a900460ff1615610bbb575f808773ffffffffffffffffffffffffffffffffffffffff1673ffffffffffffffffffffffffffffffffffffffff1681526020019081526020015f208181548110610a3e57610a3d613ddd565b5b905f5260205f209060090201604051806101400160405290815f8201548152602001600182015f9054906101000a900460ff166005811115610a8357610a82613452565b5b6005811115610a9557610a94613452565b5b81526020016002820154815260200160038201548152602001600482015481526020016005820154815260200160068201548152602001600782015f9054906101000a900460ff161515151581526020016007820160019054906101000a900460ff16151515158152602001600882018054610b1090613e7e565b80601f0160208091040260200160405190810160405280929190818152602001828054610b3c90613e7e565b8015610b875780601f10610b5e57610100808354040283529160200191610b87565b820191905f5260205f20905b815481529060010190602001808311610b6a57829003601f168201915b505050505081525050838380610b9c90613e0a565b945081518110610baf57610bae613ddd565b5b60200260200101819052505b8080600101915050610939565b50819350505050919050565b60605f805b5f808573ffffffffffffffffffffffffffffffffffffffff1673ffffffffffffffffffffffffffffffffffffffff1681526020019081526020015f2080549050811015610d1f575f808573ffffffffffffffffffffffffffffffffffffffff1673ffffffffffffffffffffffffffffffffffffffff1681526020019081526020015f208181548110610c6e57610c6d613ddd565b5b905f5260205f2090600902016007015f9054906101000a900460ff168015610cfe57505f808573ffffffffffffffffffffffffffffffffffffffff1673ffffffffffffffffffffffffffffffffffffffff1681526020019081526020015f208181548110610cdf57610cde613ddd565b5b905f5260205f20906009020160070160019054906101000a900460ff16155b15610d12578180610d0e90613e0a565b9250505b8080600101915050610bd9565b505f8167ffffffffffffffff811115610d3b57610d3a613824565b5b604051908082528060200260200182016040528015610d7457816020015b610d616132f3565b815260200190600190039081610d595790505b5090505f805b5f808773ffffffffffffffffffffffffffffffffffffffff1673ffffffffffffffffffffffffffffffffffffffff1681526020019081526020015f208054905081101561107c575f808773ffffffffffffffffffffffffffffffffffffffff1673ffffffffffffffffffffffffffffffffffffffff1681526020019081526020015f208181548110610e0f57610e0e613ddd565b5b905f5260205f2090600902016007015f9054906101000a900460ff168015610e9f57505f808773ffffffffffffffffffffffffffffffffffffffff1673ffffffffffffffffffffffffffffffffffffffff1681526020019081526020015f208181548110610e8057610e7f613ddd565b5b905f5260205f20906009020160070160019054906101000a900460ff16155b1561106f575f808773ffffffffffffffffffffffffffffffffffffffff1673ffffffffffffffffffffffffffffffffffffffff1681526020019081526020015f208181548110610ef257610ef1613ddd565b5b905f5260205f209060090201604051806101400160405290815f8201548152602001600182015f9054906101000a900460ff166005811115610f3757610f36613452565b5b6005811115610f4957610f48613452565b5b81526020016002820154815260200160038201548152602001600482015481526020016005820154815260200160068201548152602001600782015f9054906101000a900460ff161515151581526020016007820160019054906101000a900460ff16151515158152602001600882018054610fc490613e7e565b80601f0160208091040260200160405190810160405280929190818152602001828054610ff090613e7e565b801561103b5780601f106110125761010080835404028352916020019161103b565b820191905f5260205f20905b81548152906001019060200180831161101e57829003601f168201915b50505050508152505083838061105090613e0a565b94508151811061106357611062613ddd565b5b60200260200101819052505b8080600101915050610d7a565b50819350505050919050565b5f600954905090565b5f61109c3383612f5d565b90505f803373ffffffffffffffffffffffffffffffffffffffff1673ffffffffffffffffffffffffffffffffffffffff1681526020019081526020015f2080549050811061111f576040517f08c379a000000000000000000000000000000000000000000000000000000000815260040161111690613ef8565b60405180910390fd5b5f805f3373ffffffffffffffffffffffffffffffffffffffff1673ffffffffffffffffffffffffffffffffffffffff1681526020019081526020015f20828154811061116e5761116d613ddd565b5b905f5260205f2090600902019050806007015f9054906101000a900460ff16156111cd576040517f08c379a00000000000000000000000000000000000000000000000000000000081526004016111c490613f60565b60405180910390fd5b8060070160019054906101000a900460ff161561121f576040517f08c379a000000000000000000000000000000000000000000000000000000000815260040161121690613fc8565b60405180910390fd5b6112283361304e565b6001816007015f6101000a81548160ff021916908315150217905550823373ffffffffffffffffffffffffffffffffffffffff167f0e5ad31bf79f4f1cbe55a970298b3bc1f21150f7e8c250c54d006eeed7f6b99160405160405180910390a3505050565b600a5f9054906101000a900473ffffffffffffffffffffffffffffffffffffffff1673ffffffffffffffffffffffffffffffffffffffff163373ffffffffffffffffffffffffffffffffffffffff161461131c576040517f08c379a000000000000000000000000000000000000000000000000000000000815260040161131390614030565b60405180910390fd5b6113693330837f000000000000000000000000000000000000000000000000000000000000000073ffffffffffffffffffffffffffffffffffffffff166130e7909392919063ffffffff16565b8060045f82825461137a9190613daa565b925050819055507fa842aedb65f49e43d0fbc19acb8bb2c44443cc15922f45f269c4f89d84c189d3816040516113b09190613401565b60405180910390a150565b6002602052805f5260405f205f915090505481565b60605f808373ffffffffffffffffffffffffffffffffffffffff1673ffffffffffffffffffffffffffffffffffffffff1681526020019081526020015f20805480602002602001604051908101604052809291908181526020015f905b82821015611598578382905f5260205f209060090201604051806101400160405290815f8201548152602001600182015f9054906101000a900460ff16600581111561147c5761147b613452565b5b600581111561148e5761148d613452565b5b81526020016002820154815260200160038201548152602001600482015481526020016005820154815260200160068201548152602001600782015f9054906101000a900460ff161515151581526020016007820160019054906101000a900460ff1615151515815260200160088201805461150990613e7e565b80601f016020809104026020016040519081016040528092919081815260200182805461153590613e7e565b80156115805780601f1061155757610100808354040283529160200191611580565b820191905f5260205f20905b81548152906001019060200180831161156357829003601f168201915b5050505050815250508152602001906001019061142d565b505050509050919050565b5f803373ffffffffffffffffffffffffffffffffffffffff1673ffffffffffffffffffffffffffffffffffffffff1681526020019081526020015f20805490508210611624576040517f08c379a000000000000000000000000000000000000000000000000000000000815260040161161b90614098565b60405180910390fd5b5f805f3373ffffffffffffffffffffffffffffffffffffffff1673ffffffffffffffffffffffffffffffffffffffff1681526020019081526020015f20838154811061167357611672613ddd565b5b905f5260205f20906009020190505f8160050154116116c7576040517f08c379a00000000000000000000000000000000000000000000000000000000081526004016116be90614100565b60405180910390fd5b8060070160019054906101000a900460ff1615611719576040517f08c379a000000000000000000000000000000000000000000000000000000000815260040161171090614168565b60405180910390fd5b611721613169565b61172a3361304e565b5f808314611738578261173e565b81600501545b90508160050154811115611787576040517f08c379a000000000000000000000000000000000000000000000000000000000815260040161177e906141d0565b60405180910390fd5b5f81116117c9576040517f08c379a00000000000000000000000000000000000000000000000000000000081526004016117c090614238565b60405180910390fd5b80826005015f8282546117dc9190613cd9565b925050819055508060035f8282546117f49190613cd9565b925050819055508060015f3373ffffffffffffffffffffffffffffffffffffffff1673ffffffffffffffffffffffffffffffffffffffff1681526020019081526020015f206001015f82825461184a9190613daa565b925050819055505f82600501540361194c575f826007015f6101000a81548160ff02191690831515021790555060018260070160016101000a81548160ff0219169083151502179055506001805f3373ffffffffffffffffffffffffffffffffffffffff1673ffffffffffffffffffffffffffffffffffffffff1681526020019081526020015f206006015f8282546118e39190613daa565b92505081905550833373ffffffffffffffffffffffffffffffffffffffff167f8f0bb5718f9438f07adc5bcc22de409534d53898a0b346e12da54c392d34689d846001015f9054906101000a900460ff1684604051611943929190614256565b60405180910390a35b61199733827f000000000000000000000000000000000000000000000000000000000000000073ffffffffffffffffffffffffffffffffffffffff166131d99092919063ffffffff16565b833373ffffffffffffffffffffffffffffffffffffffff167f75e161b3e824b114fc1a33274bd7091918dd4e639cede50b78b15a4eea956a218385600501546040516119e492919061427d565b60405180910390a350505050565b6007602052805f5260405f205f915090505481565b60095481565b7f000000000000000000000000000000000000000000000000000000000000000081565b5f808511611a74576040517f08c379a0000000000000000000000000000000000000000000000000000000008152600401611a6b906142ee565b60405180910390fd5b428411611ab6576040517f08c379a0000000000000000000000000000000000000000000000000000000008152600401611aad90614356565b60405180910390fd5b67016345785d8a0000831015611b01576040517f08c379a0000000000000000000000000000000000000000000000000000000008152600401611af8906143be565b60405180910390fd5b5f805f3373ffffffffffffffffffffffffffffffffffffffff1673ffffffffffffffffffffffffffffffffffffffff1681526020019081526020015f208054905003611b5f57600b5f815480929190611b5990613e0a565b91905055505b60025f3373ffffffffffffffffffffffffffffffffffffffff1673ffffffffffffffffffffffffffffffffffffffff1681526020019081526020015f205f815480929190611bac90613e0a565b9190505590505f604051806101400160405280838152602001886005811115611bd857611bd7613452565b5b81526020018781526020018681526020018581526020015f81526020014281526020016001151581526020015f151581526020018481525090505f803373ffffffffffffffffffffffffffffffffffffffff1673ffffffffffffffffffffffffffffffffffffffff1681526020019081526020015f2081908060018154018082558091505060019003905f5260205f2090600902015f909190919091505f820151815f01556020820151816001015f6101000a81548160ff02191690836005811115611ca757611ca6613452565b5b021790555060408201518160020155606082015181600301556080820151816004015560a0820151816005015560c0820151816006015560e0820151816007015f6101000a81548160ff0219169083151502179055506101008201518160070160016101000a81548160ff021916908315150217905550610120820151816008019081611d349190614570565b50505060015f3373ffffffffffffffffffffffffffffffffffffffff1673ffffffffffffffffffffffffffffffffffffffff1681526020019081526020015f206005015f815480929190611d8790613e0a565b9190505550813373ffffffffffffffffffffffffffffffffffffffff167f60d136c835e93583526933cf3e671801604b843c5562db7965e3142249656997898987604051611dd79392919061463f565b60405180910390a35095945050505050565b5f611df43383612f5d565b90505f803373ffffffffffffffffffffffffffffffffffffffff1673ffffffffffffffffffffffffffffffffffffffff1681526020019081526020015f20805490508110611e77576040517f08c379a0000000000000000000000000000000000000000000000000000000008152600401611e6e90613ef8565b60405180910390fd5b5f805f3373ffffffffffffffffffffffffffffffffffffffff1673ffffffffffffffffffffffffffffffffffffffff1681526020019081526020015f208281548110611ec657611ec5613ddd565b5b905f5260205f2090600902019050806007015f9054906101000a900460ff16611f24576040517f08c379a0000000000000000000000000000000000000000000000000000000008152600401611f1b906146c5565b60405180910390fd5b8060070160019054906101000a900460ff1615611f76576040517f08c379a0000000000000000000000000000000000000000000000000000000008152600401611f6d90613fc8565b60405180910390fd5b611f7f3361304e565b5f816007015f6101000a81548160ff021916908315150217905550823373ffffffffffffffffffffffffffffffffffffffff167fb1087dc2d94a15d41e0c99e95f7383d59f4d6f7c84c7d1da082f2429badb5bd960405160405180910390a3505050565b6008602052805f5260405f205f915090505481565b60045481565b6001602052805f5260405f205f91509050805f0154908060010154908060020154908060030154908060040154908060050154908060060154905087565b600a5f9054906101000a900473ffffffffffffffffffffffffffffffffffffffff1681565b5f600354905090565b5f600b54905090565b600a5f9054906101000a900473ffffffffffffffffffffffffffffffffffffffff1673ffffffffffffffffffffffffffffffffffffffff163373ffffffffffffffffffffffffffffffffffffffff1614612102576040517f08c379a00000000000000000000000000000000000000000000000000000000081526004016120f990614030565b60405180910390fd5b61214e600a5f9054906101000a900473ffffffffffffffffffffffffffffffffffffffff16828473ffffffffffffffffffffffffffffffffffffffff166131d99092919063ffffffff16565b5050565b5f602052815f5260405f20818154811061216a575f80fd5b905f5260205f2090600902015f9150915050805f015490806001015f9054906101000a900460ff1690806002015490806003015490806004015490806005015490806006015490806007015f9054906101000a900460ff16908060070160019054906101000a900460ff16908060080180546121e590613e7e565b80601f016020809104026020016040519081016040528092919081815260200182805461221190613e7e565b801561225c5780601f106122335761010080835404028352916020019161225c565b820191905f5260205f20905b81548152906001019060200180831161223f57829003601f168201915b505050505090508a565b61226e6132f3565b5f6122798484612f5d565b90505f808573ffffffffffffffffffffffffffffffffffffffff1673ffffffffffffffffffffffffffffffffffffffff1681526020019081526020015f208054905081106122fc576040517f08c379a00000000000000000000000000000000000000000000000000000000081526004016122f390613ef8565b60405180910390fd5b5f808573ffffffffffffffffffffffffffffffffffffffff1673ffffffffffffffffffffffffffffffffffffffff1681526020019081526020015f20818154811061234a57612349613ddd565b5b905f5260205f209060090201604051806101400160405290815f8201548152602001600182015f9054906101000a900460ff16600581111561238f5761238e613452565b5b60058111156123a1576123a0613452565b5b81526020016002820154815260200160038201548152602001600482015481526020016005820154815260200160068201548152602001600782015f9054906101000a900460ff161515151581526020016007820160019054906101000a900460ff1615151515815260200160088201805461241c90613e7e565b80601f016020809104026020016040519081016040528092919081815260200182805461244890613e7e565b80156124935780601f1061246a57610100808354040283529160200191612493565b820191905f5260205f20905b81548152906001019060200180831161247657829003601f168201915b50505050508152505091505092915050565b600b5481565b7f000000000000000000000000000000000000000000000000000000000000000081565b60065481565b67016345785d8a000081565b5f8111612523576040517f08c379a000000000000000000000000000000000000000000000000000000000815260040161251a9061472d565b60405180910390fd5b5f61252e3384612f5d565b90505f803373ffffffffffffffffffffffffffffffffffffffff1673ffffffffffffffffffffffffffffffffffffffff1681526020019081526020015f208054905081106125b1576040517f08c379a00000000000000000000000000000000000000000000000000000000081526004016125a890613ef8565b60405180910390fd5b5f805f3373ffffffffffffffffffffffffffffffffffffffff1673ffffffffffffffffffffffffffffffffffffffff1681526020019081526020015f208281548110612600576125ff613ddd565b5b905f5260205f2090600902019050806007015f9054906101000a900460ff1661265e576040517f08c379a000000000000000000000000000000000000000000000000000000000815260040161265590614795565b60405180910390fd5b8060070160019054906101000a900460ff16156126b0576040517f08c379a00000000000000000000000000000000000000000000000000000000081526004016126a790613fc8565b60405180910390fd5b6126b93361304e565b6127063330857f000000000000000000000000000000000000000000000000000000000000000073ffffffffffffffffffffffffffffffffffffffff166130e7909392919063ffffffff16565b82816005015f8282546127199190613daa565b925050819055508260035f8282546127319190613daa565b925050819055505f60015f3373ffffffffffffffffffffffffffffffffffffffff1673ffffffffffffffffffffffffffffffffffffffff1681526020019081526020015f20905083815f015f82825461278a9190613daa565b925050819055505f816003015411156127f5575f620151808260030154426127b29190613cd9565b6127bc9190613d7a565b9050602081116127e457816002015f8154809291906127da90613e0a565b91905055506127ef565b600182600201819055505b50612800565b600181600201819055505b42816003018190555081600201548260050154106129da5760018260070160016101000a81548160ff021916908315150217905550806006015f81548092919061284990613e0a565b9190505550843373ffffffffffffffffffffffffffffffffffffffff167f8f0bb5718f9438f07adc5bcc22de409534d53898a0b346e12da54c392d34689d846001015f9054906101000a900460ff1685600501546040516128ab929190614256565b60405180910390a35f6103e8603284600501546128c89190613d0c565b6128d29190613d7a565b9050807f000000000000000000000000000000000000000000000000000000000000000073ffffffffffffffffffffffffffffffffffffffff166370a08231306040518263ffffffff1660e01b815260040161292e9190613a57565b602060405180830381865afa158015612949573d5f803e3d5ffd5b505050506040513d601f19601f8201168201806040525081019061296d91906147c7565b106129d8576129bd33827f000000000000000000000000000000000000000000000000000000000000000073ffffffffffffffffffffffffffffffffffffffff166131d99092919063ffffffff16565b80826004015f8282546129d09190613daa565b925050819055505b505b843373ffffffffffffffffffffffffffffffffffffffff167f73a19dd210f1a7f902193214c0ee91dd35ee5b4d920cba8d519eca65a7b488ca86604051612a219190613401565b60405180910390a35050505050565b60055481565b600a5f9054906101000a900473ffffffffffffffffffffffffffffffffffffffff1673ffffffffffffffffffffffffffffffffffffffff163373ffffffffffffffffffffffffffffffffffffffff1614612ac5576040517f08c379a0000000000000000000000000000000000000000000000000000000008152600401612abc90614030565b60405180910390fd5b612acd613169565b5f6009549050816009819055507f7cc9e799420a651f2e3cb60d13882685d25e8afccd4e8fa00d48eb7b51b21e7b8183604051612b0b92919061427d565b60405180910390a15050565b612b203361304e565b5f60085f3373ffffffffffffffffffffffffffffffffffffffff1673ffffffffffffffffffffffffffffffffffffffff1681526020019081526020015f205490505f8111612ba3576040517f08c379a0000000000000000000000000000000000000000000000000000000008152600401612b9a9061483c565b60405180910390fd5b5f60085f3373ffffffffffffffffffffffffffffffffffffffff1673ffffffffffffffffffffffffffffffffffffffff1681526020019081526020015f20819055508060015f3373ffffffffffffffffffffffffffffffffffffffff1673ffffffffffffffffffffffffffffffffffffffff1681526020019081526020015f206004015f828254612c349190613daa565b92505081905550612c8633827f000000000000000000000000000000000000000000000000000000000000000073ffffffffffffffffffffffffffffffffffffffff166131d99092919063ffffffff16565b3373ffffffffffffffffffffffffffffffffffffffff167f6a2cbfd0a4e37b7dace5dec7cf930020420c1aa4ca495bbf4972d9fd614ecc3b82604051612ccc9190613401565b60405180910390a250565b600a5f9054906101000a900473ffffffffffffffffffffffffffffffffffffffff1673ffffffffffffffffffffffffffffffffffffffff163373ffffffffffffffffffffffffffffffffffffffff1614612d66576040517f08c379a0000000000000000000000000000000000000000000000000000000008152600401612d5d90614030565b60405180910390fd5b5f73ffffffffffffffffffffffffffffffffffffffff168173ffffffffffffffffffffffffffffffffffffffff1603612dd4576040517f08c379a0000000000000000000000000000000000000000000000000000000008152600401612dcb906148a4565b60405180910390fd5b80600a5f6101000a81548173ffffffffffffffffffffffffffffffffffffffff021916908373ffffffffffffffffffffffffffffffffffffffff16021790555050565b60035481565b5f805f90505f5b5f808573ffffffffffffffffffffffffffffffffffffffff1673ffffffffffffffffffffffffffffffffffffffff1681526020019081526020015f2080549050811015612f53575f808573ffffffffffffffffffffffffffffffffffffffff1673ffffffffffffffffffffffffffffffffffffffff1681526020019081526020015f208181548110612eb957612eb8613ddd565b5b905f5260205f2090600902016007015f9054906101000a900460ff1615612f46575f808573ffffffffffffffffffffffffffffffffffffffff1673ffffffffffffffffffffffffffffffffffffffff1681526020019081526020015f208181548110612f2857612f27613ddd565b5b905f5260205f2090600902016005015482612f439190613daa565b91505b8080600101915050612e24565b5080915050919050565b5f805f90505b5f808573ffffffffffffffffffffffffffffffffffffffff1673ffffffffffffffffffffffffffffffffffffffff1681526020019081526020015f208054905081101561302357825f808673ffffffffffffffffffffffffffffffffffffffff1673ffffffffffffffffffffffffffffffffffffffff1681526020019081526020015f208281548110612ff957612ff8613ddd565b5b905f5260205f2090600902015f0154036130165780915050613048565b8080600101915050612f63565b507fffffffffffffffffffffffffffffffffffffffffffffffffffffffffffffffff90505b92915050565b613056613169565b61305f8161068b565b60085f8373ffffffffffffffffffffffffffffffffffffffff1673ffffffffffffffffffffffffffffffffffffffff1681526020019081526020015f208190555060055460075f8373ffffffffffffffffffffffffffffffffffffffff1673ffffffffffffffffffffffffffffffffffffffff1681526020019081526020015f208190555050565b613163848573ffffffffffffffffffffffffffffffffffffffff166323b872dd86868660405160240161311c939291906148c2565b604051602081830303815290604052915060e01b6020820180517bffffffffffffffffffffffffffffffffffffffffffffffffffffffff8381831617835250505050613258565b50505050565b5f60035411156131d0575f600654426131829190613cd9565b90505f600954826131939190613d0c565b9050600354670de0b6b3a7640000826131ac9190613d0c565b6131b69190613d7a565b60055f8282546131c69190613daa565b9250508190555050505b42600681905550565b613253838473ffffffffffffffffffffffffffffffffffffffff1663a9059cbb858560405160240161320c9291906148f7565b604051602081830303815290604052915060e01b6020820180517bffffffffffffffffffffffffffffffffffffffffffffffffffffffff8381831617835250505050613258565b505050565b5f8060205f8451602086015f885af180613277576040513d5f823e3d81fd5b3d92505f519150505f82146132905760018114156132ab565b5f8473ffffffffffffffffffffffffffffffffffffffff163b145b156132ed57836040517f5274afe70000000000000000000000000000000000000000000000000000000081526004016132e49190613a57565b60405180910390fd5b50505050565b6040518061014001604052805f81526020015f600581111561331857613317613452565b5b81526020015f81526020015f81526020015f81526020015f81526020015f81526020015f151581526020015f15158152602001606081525090565b5f604051905090565b5f80fd5b5f80fd5b5f73ffffffffffffffffffffffffffffffffffffffff82169050919050565b5f61338d82613364565b9050919050565b61339d81613383565b81146133a7575f80fd5b50565b5f813590506133b881613394565b92915050565b5f602082840312156133d3576133d261335c565b5b5f6133e0848285016133aa565b91505092915050565b5f819050919050565b6133fb816133e9565b82525050565b5f6020820190506134145f8301846133f2565b92915050565b5f81519050919050565b5f82825260208201905092915050565b5f819050602082019050919050565b61344c816133e9565b82525050565b7f4e487b71000000000000000000000000000000000000000000000000000000005f52602160045260245ffd5b600681106134905761348f613452565b5b50565b5f8190506134a08261347f565b919050565b5f6134af82613493565b9050919050565b6134bf816134a5565b82525050565b5f8115159050919050565b6134d9816134c5565b82525050565b5f81519050919050565b5f82825260208201905092915050565b5f5b838110156135165780820151818401526020810190506134fb565b5f8484015250505050565b5f601f19601f8301169050919050565b5f61353b826134df565b61354581856134e9565b93506135558185602086016134f9565b61355e81613521565b840191505092915050565b5f61014083015f83015161357f5f860182613443565b50602083015161359260208601826134b6565b5060408301516135a56040860182613443565b5060608301516135b86060860182613443565b5060808301516135cb6080860182613443565b5060a08301516135de60a0860182613443565b5060c08301516135f160c0860182613443565b5060e083015161360460e08601826134d0565b506101008301516136196101008601826134d0565b506101208301518482036101208601526136338282613531565b9150508091505092915050565b5f61364b8383613569565b905092915050565b5f602082019050919050565b5f6136698261341a565b6136738185613424565b93508360208202850161368585613434565b805f5b858110156136c057848403895281516136a18582613640565b94506136ac83613653565b925060208a01995050600181019050613688565b50829750879550505050505092915050565b5f6020820190508181035f8301526136ea818461365f565b905092915050565b6136fb816133e9565b8114613705575f80fd5b50565b5f81359050613716816136f2565b92915050565b5f602082840312156137315761373061335c565b5b5f61373e84828501613708565b91505092915050565b5f806040838503121561375d5761375c61335c565b5b5f61376a85828601613708565b925050602061377b85828601613708565b9150509250929050565b5f819050919050565b5f6137a86137a361379e84613364565b613785565b613364565b9050919050565b5f6137b98261378e565b9050919050565b5f6137ca826137af565b9050919050565b6137da816137c0565b82525050565b5f6020820190506137f35f8301846137d1565b92915050565b60068110613805575f80fd5b50565b5f81359050613816816137f9565b92915050565b5f80fd5b5f80fd5b7f4e487b71000000000000000000000000000000000000000000000000000000005f52604160045260245ffd5b61385a82613521565b810181811067ffffffffffffffff8211171561387957613878613824565b5b80604052505050565b5f61388b613353565b90506138978282613851565b919050565b5f67ffffffffffffffff8211156138b6576138b5613824565b5b6138bf82613521565b9050602081019050919050565b828183375f83830152505050565b5f6138ec6138e78461389c565b613882565b90508281526020810184848401111561390857613907613820565b5b6139138482856138cc565b509392505050565b5f82601f83011261392f5761392e61381c565b5b813561393f8482602086016138da565b91505092915050565b5f805f805f60a086880312156139615761396061335c565b5b5f61396e88828901613808565b955050602061397f88828901613708565b945050604061399088828901613708565b93505060606139a188828901613708565b925050608086013567ffffffffffffffff8111156139c2576139c1613360565b5b6139ce8882890161391b565b9150509295509295909350565b5f60e0820190506139ee5f83018a6133f2565b6139fb60208301896133f2565b613a0860408301886133f2565b613a1560608301876133f2565b613a2260808301866133f2565b613a2f60a08301856133f2565b613a3c60c08301846133f2565b98975050505050505050565b613a5181613383565b82525050565b5f602082019050613a6a5f830184613a48565b92915050565b5f8060408385031215613a8657613a8561335c565b5b5f613a93858286016133aa565b9250506020613aa485828601613708565b9150509250929050565b613ab7816134a5565b82525050565b613ac6816134c5565b82525050565b5f82825260208201905092915050565b5f613ae6826134df565b613af08185613acc565b9350613b008185602086016134f9565b613b0981613521565b840191505092915050565b5f61014082019050613b285f83018d6133f2565b613b35602083018c613aae565b613b42604083018b6133f2565b613b4f606083018a6133f2565b613b5c60808301896133f2565b613b6960a08301886133f2565b613b7660c08301876133f2565b613b8360e0830186613abd565b613b91610100830185613abd565b818103610120830152613ba48184613adc565b90509b9a5050505050505050505050565b5f61014083015f830151613bcb5f860182613443565b506020830151613bde60208601826134b6565b506040830151613bf16040860182613443565b506060830151613c046060860182613443565b506080830151613c176080860182613443565b5060a0830151613c2a60a0860182613443565b5060c0830151613c3d60c0860182613443565b5060e0830151613c5060e08601826134d0565b50610100830151613c656101008601826134d0565b50610120830151848203610120860152613c7f8282613531565b9150508091505092915050565b5f6020820190508181035f830152613ca48184613bb5565b905092915050565b7f4e487b71000000000000000000000000000000000000000000000000000000005f52601160045260245ffd5b5f613ce3826133e9565b9150613cee836133e9565b9250828203905081811115613d0657613d05613cac565b5b92915050565b5f613d16826133e9565b9150613d21836133e9565b9250828202613d2f816133e9565b91508282048414831517613d4657613d45613cac565b5b5092915050565b7f4e487b71000000000000000000000000000000000000000000000000000000005f52601260045260245ffd5b5f613d84826133e9565b9150613d8f836133e9565b925082613d9f57613d9e613d4d565b5b828204905092915050565b5f613db4826133e9565b9150613dbf836133e9565b9250828201905080821115613dd757613dd6613cac565b5b92915050565b7f4e487b71000000000000000000000000000000000000000000000000000000005f52603260045260245ffd5b5f613e14826133e9565b91507fffffffffffffffffffffffffffffffffffffffffffffffffffffffffffffffff8203613e4657613e45613cac565b5b600182019050919050565b7f4e487b71000000000000000000000000000000000000000000000000000000005f52602260045260245ffd5b5f6002820490506001821680613e9557607f821691505b602082108103613ea857613ea7613e51565b5b50919050565b7f476f616c206e6f7420666f756e640000000000000000000000000000000000005f82015250565b5f613ee2600e83613acc565b9150613eed82613eae565b602082019050919050565b5f6020820190508181035f830152613f0f81613ed6565b9050919050565b7f416c7265616479206163746976650000000000000000000000000000000000005f82015250565b5f613f4a600e83613acc565b9150613f5582613f16565b602082019050919050565b5f6020820190508181035f830152613f7781613f3e565b9050919050565b7f476f616c20636f6d706c657465640000000000000000000000000000000000005f82015250565b5f613fb2600e83613acc565b9150613fbd82613f7e565b602082019050919050565b5f6020820190508181035f830152613fdf81613fa6565b9050919050565b7f216f776e657200000000000000000000000000000000000000000000000000005f82015250565b5f61401a600683613acc565b915061402582613fe6565b602082019050919050565b5f6020820190508181035f8301526140478161400e565b9050919050565b7f496e76616c696420676f616c20494400000000000000000000000000000000005f82015250565b5f614082600f83613acc565b915061408d8261404e565b602082019050919050565b5f6020820190508181035f8301526140af81614076565b9050919050565b7f4e6f2066756e647320746f2077697468647261770000000000000000000000005f82015250565b5f6140ea601483613acc565b91506140f5826140b6565b602082019050919050565b5f6020820190508181035f830152614117816140de565b9050919050565b7f476f616c20616c726561647920636f6d706c65746564000000000000000000005f82015250565b5f614152601683613acc565b915061415d8261411e565b602082019050919050565b5f6020820190508181035f83015261417f81614146565b9050919050565b7f496e73756666696369656e742062616c616e636520696e20676f616c000000005f82015250565b5f6141ba601c83613acc565b91506141c582614186565b602082019050919050565b5f6020820190508181035f8301526141e7816141ae565b9050919050565b7f416d6f756e74206d7573742062652067726561746572207468616e20300000005f82015250565b5f614222601d83613acc565b915061422d826141ee565b602082019050919050565b5f6020820190508181035f83015261424f81614216565b9050919050565b5f6040820190506142695f830185613aae565b61427660208301846133f2565b9392505050565b5f6040820190506142905f8301856133f2565b61429d60208301846133f2565b9392505050565b7f5a65726f207461726765740000000000000000000000000000000000000000005f82015250565b5f6142d8600b83613acc565b91506142e3826142a4565b602082019050919050565b5f6020820190508181035f830152614305816142cc565b9050919050565b7f496e76616c6964206461746500000000000000000000000000000000000000005f82015250565b5f614340600c83613acc565b915061434b8261430c565b602082019050919050565b5f6020820190508181035f83015261436d81614334565b9050919050565b7f42656c6f77206d696e696d756d000000000000000000000000000000000000005f82015250565b5f6143a8600d83613acc565b91506143b382614374565b602082019050919050565b5f6020820190508181035f8301526143d58161439c565b9050919050565b5f819050815f5260205f209050919050565b5f6020601f8301049050919050565b5f82821b905092915050565b5f600883026144387fffffffffffffffffffffffffffffffffffffffffffffffffffffffffffffffff826143fd565b61444286836143fd565b95508019841693508086168417925050509392505050565b5f61447461446f61446a846133e9565b613785565b6133e9565b9050919050565b5f819050919050565b61448d8361445a565b6144a16144998261447b565b848454614409565b825550505050565b5f90565b6144b56144a9565b6144c0818484614484565b505050565b5b818110156144e3576144d85f826144ad565b6001810190506144c6565b5050565b601f821115614528576144f9816143dc565b614502846143ee565b81016020851015614511578190505b61452561451d856143ee565b8301826144c5565b50505b505050565b5f82821c905092915050565b5f6145485f198460080261452d565b1980831691505092915050565b5f6145608383614539565b9150826002028217905092915050565b614579826134df565b67ffffffffffffffff81111561459257614591613824565b5b61459c8254613e7e565b6145a78282856144e7565b5f60209050601f8311600181146145d8575f84156145c6578287015190505b6145d08582614555565b865550614637565b601f1984166145e6866143dc565b5f5b8281101561460d578489015182556001820191506020850194506020810190506145e8565b8683101561462a5784890151614626601f891682614539565b8355505b6001600288020188555050505b505050505050565b5f6060820190506146525f830186613aae565b61465f60208301856133f2565b81810360408301526146718184613adc565b9050949350505050565b7f416c7265616479207061757365640000000000000000000000000000000000005f82015250565b5f6146af600e83613acc565b91506146ba8261467b565b602082019050919050565b5f6020820190508181035f8301526146dc816146a3565b9050919050565b7f5a65726f20616d6f756e740000000000000000000000000000000000000000005f82015250565b5f614717600b83613acc565b9150614722826146e3565b602082019050919050565b5f6020820190508181035f8301526147448161470b565b9050919050565b7f476f616c206e6f742061637469766500000000000000000000000000000000005f82015250565b5f61477f600f83613acc565b915061478a8261474b565b602082019050919050565b5f6020820190508181035f8301526147ac81614773565b9050919050565b5f815190506147c1816136f2565b92915050565b5f602082840312156147dc576147db61335c565b5b5f6147e9848285016147b3565b91505092915050565b7f4e6f2070726f66697400000000000000000000000000000000000000000000005f82015250565b5f614826600983613acc565b9150614831826147f2565b602082019050919050565b5f6020820190508181035f8301526148538161481a565b9050919050565b7f5a65726f206164647265737300000000000000000000000000000000000000005f82015250565b5f61488e600c83613acc565b91506148998261485a565b602082019050919050565b5f6020820190508181035f8301526148bb81614882565b9050919050565b5f6060820190506148d55f830186613a48565b6148e26020830185613a48565b6148ef60408301846133f2565b949350505050565b5f60408201905061490a5f830185613a48565b61491760208301846133f2565b939250505056fea26469706673582212203ee314b5e123726e849b7f0c81e2e8cbc6fff77fe974adfba66a19e5a644aeae64736f6c63430008180033","linkReferences":{}},"methodIdentifiers":{"MIN_DEPOSIT()":"e1e158a5","claimProfit()":"f011a7af","createGoal(uint8,uint256,uint256,uint256,string)":"4c9d0814","deposit(uint256,uint256)":"e2bbb158","depositToken()":"c89039c5","earned(address)":"008cc262","emergencyWithdrawToken(address,uint256)":"a4c3b091","fundProfitPool(uint256)":"13e5415e","getActiveGoals(address)":"029a0a43","getCompletedGoals(address)":"01f41244","getGoal(address,uint256)":"bcfb3c03","getProfitShareRate()":"02ca5dbb","getTVL()":"97b3fcaa","getTotalUsers()":"9be572f6","getUserGoals(address)":"35742c63","lastUpdateTime()":"c8f33c91","nextGoalId(address)":"2e71319c","owner()":"8da5cb5b","pauseGoal(uint256)":"57cc1f0b","profitPerTokenStored()":"e4adec26","profitPool()":"6b7a2a95","profitShareRate()":"46062ef7","profitToken()":"49343624","resumeGoal(uint256)":"09b653e5","setProfitShareRate(uint256)":"e81cb1a4","totalDeposited()":"ff50abdc","totalUsers()":"bff1f9e1","transferOwnership(address)":"f2fde38b","userGoals(address,uint256)":"b6b3eedf","userProfitBalance(address)":"58104375","userProfitPerTokenPaid(address)":"4558e556","userStats(address)":"8a65d874","withdraw(uint256,uint256)":"441a3e70"},"id":22}